{
  "contractName": "Degree",
  "abi": [
    {
      "constant": true,
      "inputs": [
        {
          "internalType": "address",
          "name": "",
          "type": "address"
        }
      ],
      "name": "degreeCompleted",
      "outputs": [
        {
          "internalType": "bool",
          "name": "",
          "type": "bool"
        }
      ],
      "payable": false,
      "stateMutability": "view",
      "type": "function"
    },
    {
      "constant": true,
      "inputs": [],
      "name": "degreeCounts",
      "outputs": [
        {
          "internalType": "uint256",
          "name": "",
          "type": "uint256"
        }
      ],
      "payable": false,
      "stateMutability": "view",
      "type": "function"
    },
    {
      "constant": true,
      "inputs": [
        {
          "internalType": "address",
          "name": "",
          "type": "address"
        }
      ],
      "name": "degreelist",
      "outputs": [
        {
          "internalType": "address",
          "name": "studentAddress",
          "type": "address"
        },
        {
          "internalType": "uint256",
          "name": "degreeIDlength",
          "type": "uint256"
        }
      ],
      "payable": false,
      "stateMutability": "view",
      "type": "function"
    },
    {
      "constant": true,
      "inputs": [],
      "name": "lastupload",
      "outputs": [
        {
          "internalType": "bool",
          "name": "",
          "type": "bool"
        }
      ],
      "payable": false,
      "stateMutability": "view",
      "type": "function"
    },
    {
      "constant": true,
      "inputs": [
        {
          "internalType": "address",
          "name": "",
          "type": "address"
        }
      ],
      "name": "registeredStudent",
      "outputs": [
        {
          "internalType": "bool",
          "name": "",
          "type": "bool"
        }
      ],
      "payable": false,
      "stateMutability": "view",
      "type": "function"
    },
    {
      "constant": true,
      "inputs": [],
      "name": "studentCounts",
      "outputs": [
        {
          "internalType": "uint256",
          "name": "",
          "type": "uint256"
        }
      ],
      "payable": false,
      "stateMutability": "view",
      "type": "function"
    },
    {
      "constant": true,
      "inputs": [
        {
          "internalType": "uint256",
          "name": "",
          "type": "uint256"
        }
      ],
      "name": "studentdegreedetails",
      "outputs": [
        {
          "internalType": "uint256",
          "name": "id",
          "type": "uint256"
        },
        {
          "internalType": "string",
          "name": "degree_name",
          "type": "string"
        },
        {
          "internalType": "string",
          "name": "year",
          "type": "string"
        },
        {
          "internalType": "string",
          "name": "ipfsHASH",
          "type": "string"
        },
        {
          "internalType": "address",
          "name": "studentAddress",
          "type": "address"
        }
      ],
      "payable": false,
      "stateMutability": "view",
      "type": "function"
    },
    {
      "constant": true,
      "inputs": [
        {
          "internalType": "address",
          "name": "",
          "type": "address"
        }
      ],
      "name": "studentdetail_address",
      "outputs": [
        {
          "internalType": "uint256",
          "name": "id",
          "type": "uint256"
        },
        {
          "internalType": "string",
          "name": "name",
          "type": "string"
        },
        {
          "internalType": "address",
          "name": "studentAddress",
          "type": "address"
        }
      ],
      "payable": false,
      "stateMutability": "view",
      "type": "function"
    },
    {
      "constant": true,
      "inputs": [
        {
          "internalType": "address",
          "name": "_addressid",
          "type": "address"
        },
        {
          "internalType": "uint256",
          "name": "_degreeID",
          "type": "uint256"
        }
      ],
      "name": "getarr",
      "outputs": [
        {
          "internalType": "uint256",
          "name": "ret",
          "type": "uint256"
        }
      ],
      "payable": false,
      "stateMutability": "view",
      "type": "function"
    },
    {
      "constant": true,
      "inputs": [
        {
          "internalType": "address",
          "name": "_addressid",
          "type": "address"
        }
      ],
      "name": "getname",
      "outputs": [
        {
          "internalType": "string",
          "name": "",
          "type": "string"
        }
      ],
      "payable": false,
      "stateMutability": "view",
      "type": "function"
    },
    {
      "constant": true,
      "inputs": [
        {
          "internalType": "uint256",
          "name": "count",
          "type": "uint256"
        },
        {
          "internalType": "string",
          "name": "_ipfsHash",
          "type": "string"
        },
        {
          "internalType": "address",
          "name": "_addressid",
          "type": "address"
        }
      ],
      "name": "checkipfs",
      "outputs": [
        {
          "internalType": "bool",
          "name": "",
          "type": "bool"
        }
      ],
      "payable": false,
      "stateMutability": "view",
      "type": "function"
    },
    {
      "constant": false,
      "inputs": [
        {
          "internalType": "string",
          "name": "_name",
          "type": "string"
        },
        {
          "internalType": "address",
          "name": "_addressid",
          "type": "address"
        }
      ],
      "name": "admission",
      "outputs": [],
      "payable": false,
      "stateMutability": "nonpayable",
      "type": "function"
    },
    {
      "constant": false,
      "inputs": [
        {
          "internalType": "string",
          "name": "_degree_name",
          "type": "string"
        },
        {
          "internalType": "string",
          "name": "_year",
          "type": "string"
        },
        {
          "internalType": "string",
          "name": "_ipfsHash",
          "type": "string"
        },
        {
          "internalType": "address",
          "name": "_addressid",
          "type": "address"
        }
      ],
      "name": "upload",
      "outputs": [],
      "payable": false,
      "stateMutability": "nonpayable",
      "type": "function"
    }
  ],
  "bytecode": "0x60806040526040518060200160405280600160ff168152506000906001620000299291906200005e565b5060006001556000600a60006101000a81548160ff0219169083151502179055503480156200005757600080fd5b50620000dd565b828054828255906000526020600020908101928215620000a2579160200282015b82811115620000a1578251829060ff169055916020019190600101906200007f565b5b509050620000b19190620000b5565b5090565b620000da91905b80821115620000d6576000816000905550600101620000bc565b5090565b90565b611acd80620000ed6000396000f3fe608060405234801561001057600080fd5b50600436106100cf5760003560e01c80634742add11161008c578063922b87cd11610066578063922b87cd14610738578063c2d9c5a61461082f578063deb22ace1461092c578063fb3189e814610a07576100cf565b80634742add11461041657806387129f8b146104d3578063897ea9001461052f576100cf565b806301622b89146100d45780630e877cb4146100f2578063112dde55146102ab57806318f6f9401461030d57806319eb815e146103695780634453efc0146103f4575b600080fd5b6100dc610a25565b6040518082815260200191505060405180910390f35b61011e6004803603602081101561010857600080fd5b8101908080359060200190929190505050610a2b565b604051808681526020018060200180602001806020018573ffffffffffffffffffffffffffffffffffffffff1673ffffffffffffffffffffffffffffffffffffffff168152602001848103845288818151815260200191508051906020019080838360005b8381101561019e578082015181840152602081019050610183565b50505050905090810190601f1680156101cb5780820380516001836020036101000a031916815260200191505b50848103835287818151815260200191508051906020019080838360005b838110156102045780820151818401526020810190506101e9565b50505050905090810190601f1680156102315780820380516001836020036101000a031916815260200191505b50848103825286818151815260200191508051906020019080838360005b8381101561026a57808201518184015260208101905061024f565b50505050905090810190601f1680156102975780820380516001836020036101000a031916815260200191505b509850505050505050505060405180910390f35b6102f7600480360360408110156102c157600080fd5b81019080803573ffffffffffffffffffffffffffffffffffffffff16906020019092919080359060200190929190505050610c49565b6040518082815260200191505060405180910390f35b61034f6004803603602081101561032357600080fd5b81019080803573ffffffffffffffffffffffffffffffffffffffff169060200190929190505050610cf5565b604051808215151515815260200191505060405180910390f35b6103ab6004803603602081101561037f57600080fd5b81019080803573ffffffffffffffffffffffffffffffffffffffff169060200190929190505050610d15565b604051808373ffffffffffffffffffffffffffffffffffffffff1673ffffffffffffffffffffffffffffffffffffffff1681526020018281526020019250505060405180910390f35b6103fc610d59565b604051808215151515815260200191505060405180910390f35b6104586004803603602081101561042c57600080fd5b81019080803573ffffffffffffffffffffffffffffffffffffffff169060200190929190505050610d6c565b6040518080602001828103825283818151815260200191508051906020019080838360005b8381101561049857808201518184015260208101905061047d565b50505050905090810190601f1680156104c55780820380516001836020036101000a031916815260200191505b509250505060405180910390f35b610515600480360360208110156104e957600080fd5b81019080803573ffffffffffffffffffffffffffffffffffffffff169060200190929190505050610e50565b604051808215151515815260200191505060405180910390f35b6107366004803603608081101561054557600080fd5b810190808035906020019064010000000081111561056257600080fd5b82018360208201111561057457600080fd5b8035906020019184600183028401116401000000008311171561059657600080fd5b91908080601f016020809104026020016040519081016040528093929190818152602001838380828437600081840152601f19601f820116905080830192505050505050509192919290803590602001906401000000008111156105f957600080fd5b82018360208201111561060b57600080fd5b8035906020019184600183028401116401000000008311171561062d57600080fd5b91908080601f016020809104026020016040519081016040528093929190818152602001838380828437600081840152601f19601f8201169050808301925050505050505091929192908035906020019064010000000081111561069057600080fd5b8201836020820111156106a257600080fd5b803590602001918460018302840111640100000000831117156106c457600080fd5b91908080601f016020809104026020016040519081016040528093929190818152602001838380828437600081840152601f19601f820116905080830192505050505050509192919290803573ffffffffffffffffffffffffffffffffffffffff169060200190929190505050610e70565b005b61077a6004803603602081101561074e57600080fd5b81019080803573ffffffffffffffffffffffffffffffffffffffff169060200190929190505050611500565b60405180848152602001806020018373ffffffffffffffffffffffffffffffffffffffff1673ffffffffffffffffffffffffffffffffffffffff168152602001828103825284818151815260200191508051906020019080838360005b838110156107f25780820151818401526020810190506107d7565b50505050905090810190601f16801561081f5780820380516001836020036101000a031916815260200191505b5094505050505060405180910390f35b6109126004803603606081101561084557600080fd5b81019080803590602001909291908035906020019064010000000081111561086c57600080fd5b82018360208201111561087e57600080fd5b803590602001918460018302840111640100000000831117156108a057600080fd5b91908080601f016020809104026020016040519081016040528093929190818152602001838380828437600081840152601f19601f820116905080830192505050505050509192919290803573ffffffffffffffffffffffffffffffffffffffff1690602001909291905050506115e2565b604051808215151515815260200191505060405180910390f35b610a056004803603604081101561094257600080fd5b810190808035906020019064010000000081111561095f57600080fd5b82018360208201111561097157600080fd5b8035906020019184600183028401116401000000008311171561099357600080fd5b91908080601f016020809104026020016040519081016040528093929190818152602001838380828437600081840152601f19601f820116905080830192505050505050509192919290803573ffffffffffffffffffffffffffffffffffffffff16906020019092919050505061173c565b005b610a0f6118df565b6040518082815260200191505060405180910390f35b60085481565b6005602052806000526040600020600091509050806000015490806001018054600181600116156101000203166002900480601f016020809104026020016040519081016040528092919081815260200182805460018160011615610100020316600290048015610add5780601f10610ab257610100808354040283529160200191610add565b820191906000526020600020905b815481529060010190602001808311610ac057829003601f168201915b505050505090806002018054600181600116156101000203166002900480601f016020809104026020016040519081016040528092919081815260200182805460018160011615610100020316600290048015610b7b5780601f10610b5057610100808354040283529160200191610b7b565b820191906000526020600020905b815481529060010190602001808311610b5e57829003601f168201915b505050505090806003018054600181600116156101000203166002900480601f016020809104026020016040519081016040528092919081815260200182805460018160011615610100020316600290048015610c195780601f10610bee57610100808354040283529160200191610c19565b820191906000526020600020905b815481529060010190602001808311610bfc57829003601f168201915b5050505050908060040160009054906101000a900473ffffffffffffffffffffffffffffffffffffffff16905085565b6000806001600760008673ffffffffffffffffffffffffffffffffffffffff1673ffffffffffffffffffffffffffffffffffffffff16815260200190815260200160002060010154039050600760008573ffffffffffffffffffffffffffffffffffffffff1673ffffffffffffffffffffffffffffffffffffffff1681526020019081526020016000206002018181548110610ce157fe5b906000526020600020015491505092915050565b60046020528060005260406000206000915054906101000a900460ff1681565b60076020528060005260406000206000915090508060000160009054906101000a900473ffffffffffffffffffffffffffffffffffffffff16908060010154905082565b600a60009054906101000a900460ff1681565b6060600660008373ffffffffffffffffffffffffffffffffffffffff1673ffffffffffffffffffffffffffffffffffffffff1681526020019081526020016000206001018054600181600116156101000203166002900480601f016020809104026020016040519081016040528092919081815260200182805460018160011615610100020316600290048015610e445780601f10610e1957610100808354040283529160200191610e44565b820191906000526020600020905b815481529060010190602001808311610e2757829003601f168201915b50505050509050919050565b60036020528060005260406000206000915054906101000a900460ff1681565b600460008273ffffffffffffffffffffffffffffffffffffffff1673ffffffffffffffffffffffffffffffffffffffff16815260200190815260200160002060009054906101000a900460ff16156114fa57600360008273ffffffffffffffffffffffffffffffffffffffff1673ffffffffffffffffffffffffffffffffffffffff16815260200190815260200160002060009054906101000a900460ff166111da57600860008154809291906001019190505550610f31816008546118e5565b6040518060a0016040528060085481526020018581526020018481526020018381526020018273ffffffffffffffffffffffffffffffffffffffff16815250600560006008548152602001908152602001600020600082015181600001556020820151816001019080519060200190610fab9291906119a6565b506040820151816002019080519060200190610fc89291906119a6565b506060820151816003019080519060200190610fe59291906119a6565b5060808201518160040160006101000a81548173ffffffffffffffffffffffffffffffffffffffff021916908373ffffffffffffffffffffffffffffffffffffffff16021790555090505060405180606001604052808273ffffffffffffffffffffffffffffffffffffffff1681526020016001815260200160008054806020026020016040519081016040528092919081815260200182805480156110aa57602002820191906000526020600020905b815481526020019060010190808311611096575b5050505050815250600760008373ffffffffffffffffffffffffffffffffffffffff1673ffffffffffffffffffffffffffffffffffffffff16815260200190815260200160002060008201518160000160006101000a81548173ffffffffffffffffffffffffffffffffffffffff021916908373ffffffffffffffffffffffffffffffffffffffff16021790555060208201518160010155604082015181600201908051906020019061115e929190611a26565b509050506001600360008373ffffffffffffffffffffffffffffffffffffffff1673ffffffffffffffffffffffffffffffffffffffff16815260200190815260200160002060006101000a81548160ff0219169083151502179055506001600a60006101000a81548160ff0219169083151502179055506114f9565b6111e760015483836115e2565b156114dc5760086000815480929190600101919050555061120a816008546118e5565b6040518060a0016040528060085481526020018581526020018481526020018381526020018273ffffffffffffffffffffffffffffffffffffffff168152506005600060085481526020019081526020016000206000820151816000015560208201518160010190805190602001906112849291906119a6565b5060408201518160020190805190602001906112a19291906119a6565b5060608201518160030190805190602001906112be9291906119a6565b5060808201518160040160006101000a81548173ffffffffffffffffffffffffffffffffffffffff021916908373ffffffffffffffffffffffffffffffffffffffff16021790555090505060405180606001604052808273ffffffffffffffffffffffffffffffffffffffff168152602001600760008473ffffffffffffffffffffffffffffffffffffffff1673ffffffffffffffffffffffffffffffffffffffff168152602001908152602001600020600101548152602001600760008473ffffffffffffffffffffffffffffffffffffffff1673ffffffffffffffffffffffffffffffffffffffff16815260200190815260200160002060020180548060200260200160405190810160405280929190818152602001828054801561140457602002820191906000526020600020905b8154815260200190600101908083116113f0575b5050505050815250600760008373ffffffffffffffffffffffffffffffffffffffff1673ffffffffffffffffffffffffffffffffffffffff16815260200190815260200160002060008201518160000160006101000a81548173ffffffffffffffffffffffffffffffffffffffff021916908373ffffffffffffffffffffffffffffffffffffffff1602179055506020820151816001015560408201518160020190805190602001906114b8929190611a26565b509050506001600a60006101000a81548160ff0219169083151502179055506114f8565b6000600a60006101000a81548160ff0219169083151502179055505b5b5b50505050565b6006602052806000526040600020600091509050806000015490806001018054600181600116156101000203166002900480601f0160208091040260200160405190810160405280929190818152602001828054600181600116156101000203166002900480156115b25780601f10611587576101008083540402835291602001916115b2565b820191906000526020600020905b81548152906001019060200180831161159557829003601f168201915b5050505050908060020160009054906101000a900473ffffffffffffffffffffffffffffffffffffffff16905083565b600080600760008473ffffffffffffffffffffffffffffffffffffffff1673ffffffffffffffffffffffffffffffffffffffff16815260200190815260200160002060010154111561173457600760008373ffffffffffffffffffffffffffffffffffffffff1673ffffffffffffffffffffffffffffffffffffffff16815260200190815260200160002060010154841415611685576000935060009050611735565b838060010194505082805190602001206005600086815260200190815260200160002060030160405180828054600181600116156101000203166002900480156117065780601f106116e4576101008083540402835291820191611706565b820191906000526020600020905b8154815290600101906020018083116116f2575b50509150506040518091039020141561172b576117248484846115e2565b9050611735565b60019050611735565b5b9392505050565b600460008273ffffffffffffffffffffffffffffffffffffffff1673ffffffffffffffffffffffffffffffffffffffff16815260200190815260200160002060009054906101000a900460ff166118db57600960008154809291906001019190505550604051806060016040528060085481526020018381526020018273ffffffffffffffffffffffffffffffffffffffff16815250600660008373ffffffffffffffffffffffffffffffffffffffff1673ffffffffffffffffffffffffffffffffffffffff1681526020019081526020016000206000820151816000015560208201518160010190805190602001906118379291906119a6565b5060408201518160020160006101000a81548173ffffffffffffffffffffffffffffffffffffffff021916908373ffffffffffffffffffffffffffffffffffffffff1602179055509050506001600460008373ffffffffffffffffffffffffffffffffffffffff1673ffffffffffffffffffffffffffffffffffffffff16815260200190815260200160002060006101000a81548160ff0219169083151502179055505b5050565b60095481565b6001600760008473ffffffffffffffffffffffffffffffffffffffff1673ffffffffffffffffffffffffffffffffffffffff16815260200190815260200160002060010160008282540192505081905550600760008373ffffffffffffffffffffffffffffffffffffffff1673ffffffffffffffffffffffffffffffffffffffff1681526020019081526020016000206002018190806001815401808255809150509060018203906000526020600020016000909192909190915055505050565b828054600181600116156101000203166002900490600052602060002090601f016020900481019282601f106119e757805160ff1916838001178555611a15565b82800160010185558215611a15579182015b82811115611a145782518255916020019190600101906119f9565b5b509050611a229190611a73565b5090565b828054828255906000526020600020908101928215611a62579160200282015b82811115611a61578251825591602001919060010190611a46565b5b509050611a6f9190611a73565b5090565b611a9591905b80821115611a91576000816000905550600101611a79565b5090565b9056fea265627a7a7231582085661f4c2f074ec6b223e2a27e78781738abf1adc62fd30e89ca33787f9b409b64736f6c63430005100032",
  "source": "pragma solidity ^0.5.0;\r\n\r\ncontract Degree {\r\n    \r\n    struct StudentDetails {\r\n        uint id;\r\n        string name;\r\n        address studentAddress;\r\n    }\r\n    \r\n    struct StudentDegreeDetails {\r\n        uint id;\r\n        string degree_name;\r\n        string year;\r\n        string ipfsHASH;\r\n        address studentAddress;\r\n    }\r\n    \r\n    struct DegreeList {\r\n        address studentAddress;\r\n        uint degreeIDlength;\r\n        uint[] degreeID;\r\n    }\r\n    \r\n    uint[] temp = [1];\r\n    uint count = 0;\r\n    string ok;\r\n    \r\n    mapping(address => bool) public degreeCompleted;\r\n    mapping(address => bool) public registeredStudent;\r\n    mapping(uint => StudentDegreeDetails) public studentdegreedetails;\r\n    mapping(address => StudentDetails) public studentdetail_address;\r\n    mapping(address => DegreeList) public degreelist;\r\n\r\n    uint public degreeCounts;\r\n    uint public studentCounts;\r\n    bool public lastupload = false;\r\n    \r\n    function getdegreeIDarr(address _addressid,uint _studentCount) private{\r\n        degreelist[_addressid].degreeIDlength+=1;\r\n        degreelist[_addressid].degreeID.push(_studentCount);\r\n    }\r\n    \r\n    function getarr(address _addressid,uint _degreeID) public view returns (uint ret){\r\n        // uint _degreeID = degreelist[_addressid].degreeIDlength;\r\n        uint _degreeID = uint(degreelist[_addressid].degreeIDlength)-1;\r\n        return degreelist[_addressid].degreeID[_degreeID];\r\n    }\r\n    \r\n    function getname(address _addressid) public view returns (string memory)  {\r\n        return studentdetail_address[_addressid].name;\r\n    }\r\n    \r\n    function checkipfs(uint count,string memory _ipfsHash, address _addressid) public view returns (bool){\r\n        if(degreelist[_addressid].degreeIDlength>0) {\r\n            if(count==degreelist[_addressid].degreeIDlength){\r\n                count=0;\r\n                return false;\r\n            }\r\n            count++;\r\n            if(keccak256(bytes(studentdegreedetails[count].ipfsHASH)) == keccak256(bytes(_ipfsHash))){\r\n                return checkipfs(count,_ipfsHash,_addressid);\r\n            } else {\r\n                return true;\r\n            }\r\n        }\r\n    }\r\n\r\n    function admission(string memory _name, address _addressid) public {\r\n        if(!registeredStudent[_addressid]){\r\n            studentCounts++;\r\n            studentdetail_address[_addressid] = StudentDetails(degreeCounts,_name,_addressid);\r\n            registeredStudent[_addressid]=true;\r\n        }\r\n    }\r\n    \r\n    function upload (string memory _degree_name, string memory _year, string memory _ipfsHash, address _addressid) public{\r\n        if(registeredStudent[_addressid]){\r\n            if(!degreeCompleted[_addressid]){\r\n                degreeCounts ++;\r\n                getdegreeIDarr(_addressid,degreeCounts);\r\n                studentdegreedetails[degreeCounts] = StudentDegreeDetails(degreeCounts, _degree_name, _year, _ipfsHash, _addressid);\r\n                degreelist[_addressid] = DegreeList(_addressid, 1,temp);\r\n                degreeCompleted[_addressid]=true;\r\n                lastupload=true;\r\n            }\r\n            else{\r\n                if(checkipfs(count,_ipfsHash,_addressid)){\r\n                    degreeCounts ++;\r\n                    getdegreeIDarr(_addressid,degreeCounts);\r\n                    studentdegreedetails[degreeCounts] = StudentDegreeDetails(degreeCounts, _degree_name, _year, _ipfsHash, _addressid);\r\n                    degreelist[_addressid] = DegreeList(_addressid, degreelist[_addressid].degreeIDlength,degreelist[_addressid].degreeID);\r\n                    lastupload=true;\r\n                } else lastupload=false;\r\n            }\r\n        }\r\n    }\r\n}",
  "sourcePath": "C:/Users/MiMs/Desktop/Atria Solve for India Hackathon 28-29 Nov 2020/Code/IFPS/src/contracts/Univ.sol",
  "compiler": {
    "name": "solc",
    "version": "0.5.16+commit.9c3226ce.Emscripten.clang"
  },
  "schemaVersion": "3.2.5",
  "updatedAt": "2020-11-29T05:59:57.908Z",
  "networkType": "ethereum",
  "devdoc": {
    "methods": {}
  },
  "userdoc": {
    "methods": {}
  }
}