{
  "contractName": "Univ",
  "abi": [
    {
      "constant": true,
      "inputs": [
        {
          "internalType": "address",
          "name": "",
          "type": "address"
        }
      ],
      "name": "degreeCompleted",
      "outputs": [
        {
          "internalType": "bool",
          "name": "",
          "type": "bool"
        }
      ],
      "payable": false,
      "stateMutability": "view",
      "type": "function"
    },
    {
      "constant": true,
      "inputs": [],
      "name": "degreeCounts",
      "outputs": [
        {
          "internalType": "uint256",
          "name": "",
          "type": "uint256"
        }
      ],
      "payable": false,
      "stateMutability": "view",
      "type": "function"
    },
    {
      "constant": true,
      "inputs": [
        {
          "internalType": "address",
          "name": "",
          "type": "address"
        }
      ],
      "name": "degreelist",
      "outputs": [
        {
          "internalType": "address",
          "name": "studentAddress",
          "type": "address"
        },
        {
          "internalType": "uint256",
          "name": "degreeIDlength",
          "type": "uint256"
        }
      ],
      "payable": false,
      "stateMutability": "view",
      "type": "function"
    },
    {
      "constant": true,
      "inputs": [],
      "name": "lastshare",
      "outputs": [
        {
          "internalType": "bool",
          "name": "",
          "type": "bool"
        }
      ],
      "payable": false,
      "stateMutability": "view",
      "type": "function"
    },
    {
      "constant": true,
      "inputs": [],
      "name": "lastupload",
      "outputs": [
        {
          "internalType": "bool",
          "name": "",
          "type": "bool"
        }
      ],
      "payable": false,
      "stateMutability": "view",
      "type": "function"
    },
    {
      "constant": true,
      "inputs": [],
      "name": "lastview",
      "outputs": [
        {
          "internalType": "bool",
          "name": "",
          "type": "bool"
        }
      ],
      "payable": false,
      "stateMutability": "view",
      "type": "function"
    },
    {
      "constant": true,
      "inputs": [],
      "name": "ownerAddress",
      "outputs": [
        {
          "internalType": "address",
          "name": "",
          "type": "address"
        }
      ],
      "payable": false,
      "stateMutability": "view",
      "type": "function"
    },
    {
      "constant": true,
      "inputs": [
        {
          "internalType": "address",
          "name": "",
          "type": "address"
        }
      ],
      "name": "registeredStudent",
      "outputs": [
        {
          "internalType": "bool",
          "name": "",
          "type": "bool"
        }
      ],
      "payable": false,
      "stateMutability": "view",
      "type": "function"
    },
    {
      "constant": true,
      "inputs": [],
      "name": "shareCounts",
      "outputs": [
        {
          "internalType": "uint256",
          "name": "",
          "type": "uint256"
        }
      ],
      "payable": false,
      "stateMutability": "view",
      "type": "function"
    },
    {
      "constant": true,
      "inputs": [
        {
          "internalType": "uint256",
          "name": "",
          "type": "uint256"
        }
      ],
      "name": "sharelist",
      "outputs": [
        {
          "internalType": "uint256",
          "name": "id",
          "type": "uint256"
        },
        {
          "internalType": "address",
          "name": "studentAddress",
          "type": "address"
        },
        {
          "internalType": "string",
          "name": "ipfsHASH",
          "type": "string"
        },
        {
          "internalType": "uint256",
          "name": "shareIDLength",
          "type": "uint256"
        },
        {
          "internalType": "string",
          "name": "orig_ipfsHASH",
          "type": "string"
        }
      ],
      "payable": false,
      "stateMutability": "view",
      "type": "function"
    },
    {
      "constant": true,
      "inputs": [
        {
          "internalType": "address",
          "name": "",
          "type": "address"
        }
      ],
      "name": "std_add",
      "outputs": [
        {
          "internalType": "uint256",
          "name": "id",
          "type": "uint256"
        },
        {
          "internalType": "string",
          "name": "degree_name",
          "type": "string"
        },
        {
          "internalType": "string",
          "name": "year",
          "type": "string"
        },
        {
          "internalType": "string",
          "name": "ipfsHASH",
          "type": "string"
        },
        {
          "internalType": "string",
          "name": "orig_ipfsHASH",
          "type": "string"
        },
        {
          "internalType": "address",
          "name": "studentAddress",
          "type": "address"
        },
        {
          "internalType": "uint256",
          "name": "shareID",
          "type": "uint256"
        }
      ],
      "payable": false,
      "stateMutability": "view",
      "type": "function"
    },
    {
      "constant": true,
      "inputs": [],
      "name": "studentCounts",
      "outputs": [
        {
          "internalType": "uint256",
          "name": "",
          "type": "uint256"
        }
      ],
      "payable": false,
      "stateMutability": "view",
      "type": "function"
    },
    {
      "constant": true,
      "inputs": [
        {
          "internalType": "uint256",
          "name": "",
          "type": "uint256"
        }
      ],
      "name": "studentdegreedetails",
      "outputs": [
        {
          "internalType": "uint256",
          "name": "id",
          "type": "uint256"
        },
        {
          "internalType": "string",
          "name": "degree_name",
          "type": "string"
        },
        {
          "internalType": "string",
          "name": "year",
          "type": "string"
        },
        {
          "internalType": "string",
          "name": "ipfsHASH",
          "type": "string"
        },
        {
          "internalType": "string",
          "name": "orig_ipfsHASH",
          "type": "string"
        },
        {
          "internalType": "address",
          "name": "studentAddress",
          "type": "address"
        },
        {
          "internalType": "uint256",
          "name": "shareID",
          "type": "uint256"
        }
      ],
      "payable": false,
      "stateMutability": "view",
      "type": "function"
    },
    {
      "constant": true,
      "inputs": [
        {
          "internalType": "address",
          "name": "",
          "type": "address"
        }
      ],
      "name": "studentdetail_address",
      "outputs": [
        {
          "internalType": "uint256",
          "name": "id",
          "type": "uint256"
        },
        {
          "internalType": "string",
          "name": "name",
          "type": "string"
        },
        {
          "internalType": "address",
          "name": "studentAddress",
          "type": "address"
        }
      ],
      "payable": false,
      "stateMutability": "view",
      "type": "function"
    },
    {
      "constant": false,
      "inputs": [
        {
          "internalType": "address",
          "name": "_useraddress",
          "type": "address"
        },
        {
          "internalType": "string",
          "name": "_ipfsHASH",
          "type": "string"
        },
        {
          "internalType": "address",
          "name": "_shareaddress",
          "type": "address"
        }
      ],
      "name": "share",
      "outputs": [],
      "payable": false,
      "stateMutability": "nonpayable",
      "type": "function"
    },
    {
      "constant": true,
      "inputs": [
        {
          "internalType": "uint256",
          "name": "count",
          "type": "uint256"
        },
        {
          "internalType": "address",
          "name": "_visitoraddress",
          "type": "address"
        },
        {
          "internalType": "string",
          "name": "_ipfsHASH",
          "type": "string"
        },
        {
          "internalType": "address",
          "name": "_studentaddress",
          "type": "address"
        }
      ],
      "name": "viewDocCheck",
      "outputs": [
        {
          "internalType": "bool",
          "name": "",
          "type": "bool"
        }
      ],
      "payable": false,
      "stateMutability": "view",
      "type": "function"
    },
    {
      "constant": true,
      "inputs": [
        {
          "internalType": "uint256",
          "name": "count",
          "type": "uint256"
        },
        {
          "internalType": "address",
          "name": "_visitoraddress",
          "type": "address"
        },
        {
          "internalType": "string",
          "name": "_ipfsHASH",
          "type": "string"
        },
        {
          "internalType": "address",
          "name": "_studentaddress",
          "type": "address"
        }
      ],
      "name": "viewDoc",
      "outputs": [
        {
          "internalType": "string",
          "name": "",
          "type": "string"
        }
      ],
      "payable": false,
      "stateMutability": "view",
      "type": "function"
    },
    {
      "constant": true,
      "inputs": [
        {
          "internalType": "uint256",
          "name": "count",
          "type": "uint256"
        },
        {
          "internalType": "string",
          "name": "_ipfsHash",
          "type": "string"
        },
        {
          "internalType": "address",
          "name": "_addressid",
          "type": "address"
        }
      ],
      "name": "matchipfs",
      "outputs": [
        {
          "internalType": "uint256",
          "name": "degreeID",
          "type": "uint256"
        }
      ],
      "payable": false,
      "stateMutability": "view",
      "type": "function"
    },
    {
      "constant": true,
      "inputs": [
        {
          "internalType": "address",
          "name": "_addressid",
          "type": "address"
        }
      ],
      "name": "getarr",
      "outputs": [
        {
          "internalType": "uint256",
          "name": "ret",
          "type": "uint256"
        }
      ],
      "payable": false,
      "stateMutability": "view",
      "type": "function"
    },
    {
      "constant": true,
      "inputs": [
        {
          "internalType": "address",
          "name": "_addressid",
          "type": "address"
        }
      ],
      "name": "getname",
      "outputs": [
        {
          "internalType": "string",
          "name": "",
          "type": "string"
        }
      ],
      "payable": false,
      "stateMutability": "view",
      "type": "function"
    },
    {
      "constant": true,
      "inputs": [
        {
          "internalType": "uint256",
          "name": "count",
          "type": "uint256"
        },
        {
          "internalType": "string",
          "name": "_ipfsHash",
          "type": "string"
        },
        {
          "internalType": "address",
          "name": "_addressid",
          "type": "address"
        }
      ],
      "name": "checkipfs",
      "outputs": [
        {
          "internalType": "bool",
          "name": "",
          "type": "bool"
        }
      ],
      "payable": false,
      "stateMutability": "view",
      "type": "function"
    },
    {
      "constant": false,
      "inputs": [
        {
          "internalType": "string",
          "name": "_name",
          "type": "string"
        },
        {
          "internalType": "address",
          "name": "_addressid",
          "type": "address"
        }
      ],
      "name": "admission",
      "outputs": [],
      "payable": false,
      "stateMutability": "nonpayable",
      "type": "function"
    },
    {
      "constant": false,
      "inputs": [
        {
          "internalType": "string",
          "name": "_degree_name",
          "type": "string"
        },
        {
          "internalType": "string",
          "name": "_year",
          "type": "string"
        },
        {
          "internalType": "string",
          "name": "_ipfsHash",
          "type": "string"
        },
        {
          "internalType": "address",
          "name": "_addressid",
          "type": "address"
        },
        {
          "internalType": "string",
          "name": "_orig_ipfsHASH",
          "type": "string"
        }
      ],
      "name": "upload",
      "outputs": [],
      "payable": false,
      "stateMutability": "nonpayable",
      "type": "function"
    }
  ],
  "bytecode": "0x608060405273049bb561227ace1c8dfed55c4e9386ccb6d637026000806101000a81548173ffffffffffffffffffffffffffffffffffffffff021916908373ffffffffffffffffffffffffffffffffffffffff1602179055506040518060200160405280600160ff1681525060029060016200007d929190620000e3565b506000600e60006101000a81548160ff0219169083151502179055506000600e60016101000a81548160ff0219169083151502179055506001600e60026101000a81548160ff021916908315150217905550348015620000dc57600080fd5b5062000162565b82805482825590600052602060002090810192821562000127579160200282015b8281111562000126578251829060ff1690559160200191906001019062000104565b5b5090506200013691906200013a565b5090565b6200015f91905b808211156200015b57600081600090555060010162000141565b5090565b90565b6137ed80620001726000396000f3fe608060405234801561001057600080fd5b506004361061014c5760003560e01c8063922b87cd116100c3578063d45aa73c1161007c578063d45aa73c14610ff9578063de732c9f1461123b578063deb22ace1461125d578063dee09de814611338578063fb3189e814611433578063fef6e5a6146114515761014c565b8063922b87cd146108c0578063a2c0d78f146109b7578063a991ccd214610b0b578063b9a9c1f514610b63578063c2d9c5a614610e03578063d2f0965414610f005761014c565b806334db84c61161011557806334db84c61461059f5780634453efc0146105bd5780634742add1146105df57806387129f8b1461069c5780638f665f3f146106f85780638f84aa09146108765761014c565b80626a2d041461015157806301622b891461026e5780630e877cb41461028c57806318f6f940146104b857806319eb815e14610514575b600080fd5b6102546004803603608081101561016757600080fd5b8101908080359060200190929190803573ffffffffffffffffffffffffffffffffffffffff169060200190929190803590602001906401000000008111156101ae57600080fd5b8201836020820111156101c057600080fd5b803590602001918460018302840111640100000000831117156101e257600080fd5b91908080601f016020809104026020016040519081016040528093929190818152602001838380828437600081840152601f19601f820116905080830192505050505050509192919290803573ffffffffffffffffffffffffffffffffffffffff169060200190929190505050611473565b604051808215151515815260200191505060405180910390f35b6102766115cf565b6040518082815260200191505060405180910390f35b6102b8600480360360208110156102a257600080fd5b81019080803590602001909291905050506115d5565b60405180888152602001806020018060200180602001806020018773ffffffffffffffffffffffffffffffffffffffff1673ffffffffffffffffffffffffffffffffffffffff16815260200186815260200185810385528b818151815260200191508051906020019080838360005b83811015610342578082015181840152602081019050610327565b50505050905090810190601f16801561036f5780820380516001836020036101000a031916815260200191505b5085810384528a818151815260200191508051906020019080838360005b838110156103a857808201518184015260208101905061038d565b50505050905090810190601f1680156103d55780820380516001836020036101000a031916815260200191505b50858103835289818151815260200191508051906020019080838360005b8381101561040e5780820151818401526020810190506103f3565b50505050905090810190601f16801561043b5780820380516001836020036101000a031916815260200191505b50858103825288818151815260200191508051906020019080838360005b83811015610474578082015181840152602081019050610459565b50505050905090810190601f1680156104a15780820380516001836020036101000a031916815260200191505b509b50505050505050505050505060405180910390f35b6104fa600480360360208110156104ce57600080fd5b81019080803573ffffffffffffffffffffffffffffffffffffffff169060200190929190505050611897565b604051808215151515815260200191505060405180910390f35b6105566004803603602081101561052a57600080fd5b81019080803573ffffffffffffffffffffffffffffffffffffffff1690602001909291905050506118b7565b604051808373ffffffffffffffffffffffffffffffffffffffff1673ffffffffffffffffffffffffffffffffffffffff1681526020018281526020019250505060405180910390f35b6105a76118fb565b6040518082815260200191505060405180910390f35b6105c5611901565b604051808215151515815260200191505060405180910390f35b610621600480360360208110156105f557600080fd5b81019080803573ffffffffffffffffffffffffffffffffffffffff169060200190929190505050611914565b6040518080602001828103825283818151815260200191508051906020019080838360005b83811015610661578082015181840152602081019050610646565b50505050905090810190601f16801561068e5780820380516001836020036101000a031916815260200191505b509250505060405180910390f35b6106de600480360360208110156106b257600080fd5b81019080803573ffffffffffffffffffffffffffffffffffffffff1690602001909291905050506119f8565b604051808215151515815260200191505060405180910390f35b6107fb6004803603608081101561070e57600080fd5b8101908080359060200190929190803573ffffffffffffffffffffffffffffffffffffffff1690602001909291908035906020019064010000000081111561075557600080fd5b82018360208201111561076757600080fd5b8035906020019184600183028401116401000000008311171561078957600080fd5b91908080601f016020809104026020016040519081016040528093929190818152602001838380828437600081840152601f19601f820116905080830192505050505050509192919290803573ffffffffffffffffffffffffffffffffffffffff169060200190929190505050611a18565b6040518080602001828103825283818151815260200191508051906020019080838360005b8381101561083b578082015181840152602081019050610820565b50505050905090810190601f1680156108685780820380516001836020036101000a031916815260200191505b509250505060405180910390f35b61087e611b1d565b604051808273ffffffffffffffffffffffffffffffffffffffff1673ffffffffffffffffffffffffffffffffffffffff16815260200191505060405180910390f35b610902600480360360208110156108d657600080fd5b81019080803573ffffffffffffffffffffffffffffffffffffffff169060200190929190505050611b42565b60405180848152602001806020018373ffffffffffffffffffffffffffffffffffffffff1673ffffffffffffffffffffffffffffffffffffffff168152602001828103825284818151815260200191508051906020019080838360005b8381101561097a57808201518184015260208101905061095f565b50505050905090810190601f1680156109a75780820380516001836020036101000a031916815260200191505b5094505050505060405180910390f35b6109e3600480360360208110156109cd57600080fd5b8101908080359060200190929190505050611c24565b604051808681526020018573ffffffffffffffffffffffffffffffffffffffff1673ffffffffffffffffffffffffffffffffffffffff1681526020018060200184815260200180602001838103835286818151815260200191508051906020019080838360005b83811015610a65578082015181840152602081019050610a4a565b50505050905090810190601f168015610a925780820380516001836020036101000a031916815260200191505b50838103825284818151815260200191508051906020019080838360005b83811015610acb578082015181840152602081019050610ab0565b50505050905090810190601f168015610af85780820380516001836020036101000a031916815260200191505b5097505050505050505060405180910390f35b610b4d60048036036020811015610b2157600080fd5b81019080803573ffffffffffffffffffffffffffffffffffffffff169060200190929190505050611daa565b6040518082815260200191505060405180910390f35b610e01600480360360a0811015610b7957600080fd5b8101908080359060200190640100000000811115610b9657600080fd5b820183602082011115610ba857600080fd5b80359060200191846001830284011164010000000083111715610bca57600080fd5b91908080601f016020809104026020016040519081016040528093929190818152602001838380828437600081840152601f19601f82011690508083019250505050505050919291929080359060200190640100000000811115610c2d57600080fd5b820183602082011115610c3f57600080fd5b80359060200191846001830284011164010000000083111715610c6157600080fd5b91908080601f016020809104026020016040519081016040528093929190818152602001838380828437600081840152601f19601f82011690508083019250505050505050919291929080359060200190640100000000811115610cc457600080fd5b820183602082011115610cd657600080fd5b80359060200191846001830284011164010000000083111715610cf857600080fd5b91908080601f016020809104026020016040519081016040528093929190818152602001838380828437600081840152601f19601f820116905080830192505050505050509192919290803573ffffffffffffffffffffffffffffffffffffffff16906020019092919080359060200190640100000000811115610d7b57600080fd5b820183602082011115610d8d57600080fd5b80359060200191846001830284011164010000000083111715610daf57600080fd5b91908080601f016020809104026020016040519081016040528093929190818152602001838380828437600081840152601f19601f820116905080830192505050505050509192919290505050611e55565b005b610ee660048036036060811015610e1957600080fd5b810190808035906020019092919080359060200190640100000000811115610e4057600080fd5b820183602082011115610e5257600080fd5b80359060200191846001830284011164010000000083111715610e7457600080fd5b91908080601f016020809104026020016040519081016040528093929190818152602001838380828437600081840152601f19601f820116905080830192505050505050509192919290803573ffffffffffffffffffffffffffffffffffffffff169060200190929190505050612c7f565b604051808215151515815260200191505060405180910390f35b610fe360048036036060811015610f1657600080fd5b810190808035906020019092919080359060200190640100000000811115610f3d57600080fd5b820183602082011115610f4f57600080fd5b80359060200191846001830284011164010000000083111715610f7157600080fd5b91908080601f016020809104026020016040519081016040528093929190818152602001838380828437600081840152601f19601f820116905080830192505050505050509192919290803573ffffffffffffffffffffffffffffffffffffffff169060200190929190505050612dd9565b6040518082815260200191505060405180910390f35b61103b6004803603602081101561100f57600080fd5b81019080803573ffffffffffffffffffffffffffffffffffffffff169060200190929190505050612f32565b60405180888152602001806020018060200180602001806020018773ffffffffffffffffffffffffffffffffffffffff1673ffffffffffffffffffffffffffffffffffffffff16815260200186815260200185810385528b818151815260200191508051906020019080838360005b838110156110c55780820151818401526020810190506110aa565b50505050905090810190601f1680156110f25780820380516001836020036101000a031916815260200191505b5085810384528a818151815260200191508051906020019080838360005b8381101561112b578082015181840152602081019050611110565b50505050905090810190601f1680156111585780820380516001836020036101000a031916815260200191505b50858103835289818151815260200191508051906020019080838360005b83811015611191578082015181840152602081019050611176565b50505050905090810190601f1680156111be5780820380516001836020036101000a031916815260200191505b50858103825288818151815260200191508051906020019080838360005b838110156111f75780820151818401526020810190506111dc565b50505050905090810190601f1680156112245780820380516001836020036101000a031916815260200191505b509b50505050505050505050505060405180910390f35b6112436131f4565b604051808215151515815260200191505060405180910390f35b6113366004803603604081101561127357600080fd5b810190808035906020019064010000000081111561129057600080fd5b8201836020820111156112a257600080fd5b803590602001918460018302840111640100000000831117156112c457600080fd5b91908080601f016020809104026020016040519081016040528093929190818152602001838380828437600081840152601f19601f820116905080830192505050505050509192919290803573ffffffffffffffffffffffffffffffffffffffff169060200190929190505050613207565b005b6114316004803603606081101561134e57600080fd5b81019080803573ffffffffffffffffffffffffffffffffffffffff1690602001909291908035906020019064010000000081111561138b57600080fd5b82018360208201111561139d57600080fd5b803590602001918460018302840111640100000000831117156113bf57600080fd5b91908080601f016020809104026020016040519081016040528093929190818152602001838380828437600081840152601f19601f820116905080830192505050505050509192919290803573ffffffffffffffffffffffffffffffffffffffff169060200190929190505050613404565b005b61143b61351f565b6040518082815260200191505060405180910390f35b611459613525565b604051808215151515815260200191505060405180910390f35b60008061148260008585612dd9565b146115c257600a60006006600061149b60008888612dd9565b8152602001908152602001600020600601548152602001908152602001600020600301548514156114cf57600090506115c7565b8373ffffffffffffffffffffffffffffffffffffffff16600a6000600660006114fa60008989612dd9565b8152602001908152602001600020600601548152602001908152602001600020600501600a60006006600061153160008a8a612dd9565b8152602001908152602001600020600601548152602001908152602001600020600301548154811061155f57fe5b9060005260206000200160009054906101000a900473ffffffffffffffffffffffffffffffffffffffff1673ffffffffffffffffffffffffffffffffffffffff1614156115af57600190506115c7565b6115bb85858585611473565b90506115c7565b600090505b949350505050565b600b5481565b6006602052806000526040600020600091509050806000015490806001018054600181600116156101000203166002900480601f0160208091040260200160405190810160405280929190818152602001828054600181600116156101000203166002900480156116875780601f1061165c57610100808354040283529160200191611687565b820191906000526020600020905b81548152906001019060200180831161166a57829003601f168201915b505050505090806002018054600181600116156101000203166002900480601f0160208091040260200160405190810160405280929190818152602001828054600181600116156101000203166002900480156117255780601f106116fa57610100808354040283529160200191611725565b820191906000526020600020905b81548152906001019060200180831161170857829003601f168201915b505050505090806003018054600181600116156101000203166002900480601f0160208091040260200160405190810160405280929190818152602001828054600181600116156101000203166002900480156117c35780601f10611798576101008083540402835291602001916117c3565b820191906000526020600020905b8154815290600101906020018083116117a657829003601f168201915b505050505090806004018054600181600116156101000203166002900480601f0160208091040260200160405190810160405280929190818152602001828054600181600116156101000203166002900480156118615780601f1061183657610100808354040283529160200191611861565b820191906000526020600020905b81548152906001019060200180831161184457829003601f168201915b5050505050908060050160009054906101000a900473ffffffffffffffffffffffffffffffffffffffff16908060060154905087565b60056020528060005260406000206000915054906101000a900460ff1681565b60096020528060005260406000206000915090508060000160009054906101000a900473ffffffffffffffffffffffffffffffffffffffff16908060010154905082565b600d5481565b600e60009054906101000a900460ff1681565b6060600860008373ffffffffffffffffffffffffffffffffffffffff1673ffffffffffffffffffffffffffffffffffffffff1681526020019081526020016000206001018054600181600116156101000203166002900480601f0160208091040260200160405190810160405280929190818152602001828054600181600116156101000203166002900480156119ec5780601f106119c1576101008083540402835291602001916119ec565b820191906000526020600020905b8154815290600101906020018083116119cf57829003601f168201915b50505050509050919050565b60046020528060005260406000206000915054906101000a900460ff1681565b6060611a2685858585611473565b15611b0257600a600060066000611a3f60008888612dd9565b81526020019081526020016000206006015481526020019081526020016000206004018054600181600116156101000203166002900480601f016020809104026020016040519081016040528092919081815260200182805460018160011615610100020316600290048015611af65780601f10611acb57610100808354040283529160200191611af6565b820191906000526020600020905b815481529060010190602001808311611ad957829003601f168201915b50505050509050611b15565b6040518060200160405280600081525090505b949350505050565b6000809054906101000a900473ffffffffffffffffffffffffffffffffffffffff1681565b6008602052806000526040600020600091509050806000015490806001018054600181600116156101000203166002900480601f016020809104026020016040519081016040528092919081815260200182805460018160011615610100020316600290048015611bf45780601f10611bc957610100808354040283529160200191611bf4565b820191906000526020600020905b815481529060010190602001808311611bd757829003601f168201915b5050505050908060020160009054906101000a900473ffffffffffffffffffffffffffffffffffffffff16905083565b600a6020528060005260406000206000915090508060000154908060010160009054906101000a900473ffffffffffffffffffffffffffffffffffffffff1690806002018054600181600116156101000203166002900480601f016020809104026020016040519081016040528092919081815260200182805460018160011615610100020316600290048015611cfc5780601f10611cd157610100808354040283529160200191611cfc565b820191906000526020600020905b815481529060010190602001808311611cdf57829003601f168201915b505050505090806003015490806004018054600181600116156101000203166002900480601f016020809104026020016040519081016040528092919081815260200182805460018160011615610100020316600290048015611da05780601f10611d7557610100808354040283529160200191611da0565b820191906000526020600020905b815481529060010190602001808311611d8357829003601f168201915b5050505050905085565b6000806001600960008573ffffffffffffffffffffffffffffffffffffffff1673ffffffffffffffffffffffffffffffffffffffff16815260200190815260200160002060010154039050600960008473ffffffffffffffffffffffffffffffffffffffff1673ffffffffffffffffffffffffffffffffffffffff1681526020019081526020016000206002018181548110611e4257fe5b9060005260206000200154915050919050565b600560008373ffffffffffffffffffffffffffffffffffffffff1673ffffffffffffffffffffffffffffffffffffffff16815260200190815260200160002060009054906101000a900460ff168015611efa57503373ffffffffffffffffffffffffffffffffffffffff166000809054906101000a900473ffffffffffffffffffffffffffffffffffffffff1673ffffffffffffffffffffffffffffffffffffffff16145b15612c7857600460008373ffffffffffffffffffffffffffffffffffffffff1673ffffffffffffffffffffffffffffffffffffffff16815260200190815260200160002060009054906101000a900460ff166125b857600b60008154809291906001019190505550611f6e82600b54613538565b600d6000815480929190600101919050555060018290806001815401808255809150509060018203906000526020600020016000909192909190916101000a81548173ffffffffffffffffffffffffffffffffffffffff021916908373ffffffffffffffffffffffffffffffffffffffff160217905550506040518060c00160405280600d5481526020018373ffffffffffffffffffffffffffffffffffffffff1681526020018481526020016000815260200182815260200160018054806020026020016040519081016040528092919081815260200182805480156120aa57602002820191906000526020600020905b8160009054906101000a900473ffffffffffffffffffffffffffffffffffffffff1673ffffffffffffffffffffffffffffffffffffffff1681526020019060010190808311612060575b5050505050815250600a6000600d5481526020019081526020016000206000820151816000015560208201518160010160006101000a81548173ffffffffffffffffffffffffffffffffffffffff021916908373ffffffffffffffffffffffffffffffffffffffff16021790555060408201518160020190805190602001906121349291906135f9565b5060608201518160030155608082015181600401908051906020019061215b9291906135f9565b5060a0820151816005019080519060200190612178929190613679565b509050506040518060e00160405280600b5481526020018681526020018581526020018481526020018281526020018373ffffffffffffffffffffffffffffffffffffffff168152602001600d5481525060066000600b5481526020019081526020016000206000820151816000015560208201518160010190805190602001906122049291906135f9565b5060408201518160020190805190602001906122219291906135f9565b50606082015181600301908051906020019061223e9291906135f9565b50608082015181600401908051906020019061225b9291906135f9565b5060a08201518160050160006101000a81548173ffffffffffffffffffffffffffffffffffffffff021916908373ffffffffffffffffffffffffffffffffffffffff16021790555060c082015181600601559050506040518060e00160405280600b5481526020018681526020018581526020018481526020018281526020018373ffffffffffffffffffffffffffffffffffffffff168152602001600d54815250600760008473ffffffffffffffffffffffffffffffffffffffff1673ffffffffffffffffffffffffffffffffffffffff1681526020019081526020016000206000820151816000015560208201518160010190805190602001906123629291906135f9565b50604082015181600201908051906020019061237f9291906135f9565b50606082015181600301908051906020019061239c9291906135f9565b5060808201518160040190805190602001906123b99291906135f9565b5060a08201518160050160006101000a81548173ffffffffffffffffffffffffffffffffffffffff021916908373ffffffffffffffffffffffffffffffffffffffff16021790555060c0820151816006015590505060405180606001604052808373ffffffffffffffffffffffffffffffffffffffff16815260200160018152602001600280548060200260200160405190810160405280929190818152602001828054801561248857602002820191906000526020600020905b815481526020019060010190808311612474575b5050505050815250600960008473ffffffffffffffffffffffffffffffffffffffff1673ffffffffffffffffffffffffffffffffffffffff16815260200190815260200160002060008201518160000160006101000a81548173ffffffffffffffffffffffffffffffffffffffff021916908373ffffffffffffffffffffffffffffffffffffffff16021790555060208201518160010155604082015181600201908051906020019061253c929190613703565b509050506001600460008473ffffffffffffffffffffffffffffffffffffffff1673ffffffffffffffffffffffffffffffffffffffff16815260200190815260200160002060006101000a81548160ff0219169083151502179055506001600e60006101000a81548160ff021916908315150217905550612c77565b6125c460008484612c7f565b15612c5a57600b600081548092919060010191905055506125e782600b54613538565b600d6000815480929190600101919050555060018290806001815401808255809150509060018203906000526020600020016000909192909190916101000a81548173ffffffffffffffffffffffffffffffffffffffff021916908373ffffffffffffffffffffffffffffffffffffffff160217905550506040518060c00160405280600d5481526020018373ffffffffffffffffffffffffffffffffffffffff16815260200184815260200160008152602001828152602001600180548060200260200160405190810160405280929190818152602001828054801561272357602002820191906000526020600020905b8160009054906101000a900473ffffffffffffffffffffffffffffffffffffffff1673ffffffffffffffffffffffffffffffffffffffff16815260200190600101908083116126d9575b5050505050815250600a6000600d5481526020019081526020016000206000820151816000015560208201518160010160006101000a81548173ffffffffffffffffffffffffffffffffffffffff021916908373ffffffffffffffffffffffffffffffffffffffff16021790555060408201518160020190805190602001906127ad9291906135f9565b506060820151816003015560808201518160040190805190602001906127d49291906135f9565b5060a08201518160050190805190602001906127f1929190613679565b509050506040518060e00160405280600b5481526020018681526020018581526020018481526020018281526020018373ffffffffffffffffffffffffffffffffffffffff168152602001600d5481525060066000600b54815260200190815260200160002060008201518160000155602082015181600101908051906020019061287d9291906135f9565b50604082015181600201908051906020019061289a9291906135f9565b5060608201518160030190805190602001906128b79291906135f9565b5060808201518160040190805190602001906128d49291906135f9565b5060a08201518160050160006101000a81548173ffffffffffffffffffffffffffffffffffffffff021916908373ffffffffffffffffffffffffffffffffffffffff16021790555060c082015181600601559050506040518060e00160405280600b5481526020018681526020018581526020018481526020018281526020018373ffffffffffffffffffffffffffffffffffffffff168152602001600d54815250600760008473ffffffffffffffffffffffffffffffffffffffff1673ffffffffffffffffffffffffffffffffffffffff1681526020019081526020016000206000820151816000015560208201518160010190805190602001906129db9291906135f9565b5060408201518160020190805190602001906129f89291906135f9565b506060820151816003019080519060200190612a159291906135f9565b506080820151816004019080519060200190612a329291906135f9565b5060a08201518160050160006101000a81548173ffffffffffffffffffffffffffffffffffffffff021916908373ffffffffffffffffffffffffffffffffffffffff16021790555060c0820151816006015590505060405180606001604052808373ffffffffffffffffffffffffffffffffffffffff168152602001600960008573ffffffffffffffffffffffffffffffffffffffff1673ffffffffffffffffffffffffffffffffffffffff168152602001908152602001600020600101548152602001600960008573ffffffffffffffffffffffffffffffffffffffff1673ffffffffffffffffffffffffffffffffffffffff168152602001908152602001600020600201805480602002602001604051908101604052809291908181526020018280548015612b8257602002820191906000526020600020905b815481526020019060010190808311612b6e575b5050505050815250600960008473ffffffffffffffffffffffffffffffffffffffff1673ffffffffffffffffffffffffffffffffffffffff16815260200190815260200160002060008201518160000160006101000a81548173ffffffffffffffffffffffffffffffffffffffff021916908373ffffffffffffffffffffffffffffffffffffffff160217905550602082015181600101556040820151816002019080519060200190612c36929190613703565b509050506001600e60006101000a81548160ff021916908315150217905550612c76565b6000600e60006101000a81548160ff0219169083151502179055505b5b5b5050505050565b600080600960008473ffffffffffffffffffffffffffffffffffffffff1673ffffffffffffffffffffffffffffffffffffffff168152602001908152602001600020600101541115612dd157600960008373ffffffffffffffffffffffffffffffffffffffff1673ffffffffffffffffffffffffffffffffffffffff16815260200190815260200160002060010154841415612d22576000935060009050612dd2565b83806001019450508280519060200120600660008681526020019081526020016000206003016040518082805460018160011615610100020316600290048015612da35780601f10612d81576101008083540402835291820191612da3565b820191906000526020600020905b815481529060010190602001808311612d8f575b505091505060405180910390201415612dc857612dc1848484612c7f565b9050612dd2565b60019050612dd2565b5b9392505050565b600080600960008473ffffffffffffffffffffffffffffffffffffffff1673ffffffffffffffffffffffffffffffffffffffff168152602001908152602001600020600101541115612f2a57600960008373ffffffffffffffffffffffffffffffffffffffff1673ffffffffffffffffffffffffffffffffffffffff16815260200190815260200160002060010154841415612e7c576000935060009050612f2b565b83806001019450508280519060200120600660008681526020019081526020016000206003016040518082805460018160011615610100020316600290048015612efd5780601f10612edb576101008083540402835291820191612efd565b820191906000526020600020905b815481529060010190602001808311612ee9575b505091505060405180910390201415612f1857839050612f2b565b612f23848484612dd9565b9050612f2b565b5b9392505050565b6007602052806000526040600020600091509050806000015490806001018054600181600116156101000203166002900480601f016020809104026020016040519081016040528092919081815260200182805460018160011615610100020316600290048015612fe45780601f10612fb957610100808354040283529160200191612fe4565b820191906000526020600020905b815481529060010190602001808311612fc757829003601f168201915b505050505090806002018054600181600116156101000203166002900480601f0160208091040260200160405190810160405280929190818152602001828054600181600116156101000203166002900480156130825780601f1061305757610100808354040283529160200191613082565b820191906000526020600020905b81548152906001019060200180831161306557829003601f168201915b505050505090806003018054600181600116156101000203166002900480601f0160208091040260200160405190810160405280929190818152602001828054600181600116156101000203166002900480156131205780601f106130f557610100808354040283529160200191613120565b820191906000526020600020905b81548152906001019060200180831161310357829003601f168201915b505050505090806004018054600181600116156101000203166002900480601f0160208091040260200160405190810160405280929190818152602001828054600181600116156101000203166002900480156131be5780601f10613193576101008083540402835291602001916131be565b820191906000526020600020905b8154815290600101906020018083116131a157829003601f168201915b5050505050908060050160009054906101000a900473ffffffffffffffffffffffffffffffffffffffff16908060060154905087565b600e60019054906101000a900460ff1681565b600560008273ffffffffffffffffffffffffffffffffffffffff1673ffffffffffffffffffffffffffffffffffffffff16815260200190815260200160002060009054906101000a900460ff161580156132ad57503373ffffffffffffffffffffffffffffffffffffffff166000809054906101000a900473ffffffffffffffffffffffffffffffffffffffff1673ffffffffffffffffffffffffffffffffffffffff16145b1561340057600c600081548092919060010191905055506040518060600160405280600b5481526020018381526020018273ffffffffffffffffffffffffffffffffffffffff16815250600860008373ffffffffffffffffffffffffffffffffffffffff1673ffffffffffffffffffffffffffffffffffffffff16815260200190815260200160002060008201518160000155602082015181600101908051906020019061335c9291906135f9565b5060408201518160020160006101000a81548173ffffffffffffffffffffffffffffffffffffffff021916908373ffffffffffffffffffffffffffffffffffffffff1602179055509050506001600560008373ffffffffffffffffffffffffffffffffffffffff1673ffffffffffffffffffffffffffffffffffffffff16815260200190815260200160002060006101000a81548160ff0219169083151502179055505b5050565b600061341260008486612dd9565b146134fe57600d600081548092919060010191905055506001600a600061343b60008688612dd9565b815260200190815260200160002060030160008282540192505081905550600a600061346960008587612dd9565b81526020019081526020016000206005018190806001815401808255809150509060018203906000526020600020016000909192909190916101000a81548173ffffffffffffffffffffffffffffffffffffffff021916908373ffffffffffffffffffffffffffffffffffffffff160217905550506001600e60016101000a81548160ff02191690831515021790555061351a565b6000600e60016101000a81548160ff0219169083151502179055505b505050565b600c5481565b600e60029054906101000a900460ff1681565b6001600960008473ffffffffffffffffffffffffffffffffffffffff1673ffffffffffffffffffffffffffffffffffffffff16815260200190815260200160002060010160008282540192505081905550600960008373ffffffffffffffffffffffffffffffffffffffff1673ffffffffffffffffffffffffffffffffffffffff1681526020019081526020016000206002018190806001815401808255809150509060018203906000526020600020016000909192909190915055505050565b828054600181600116156101000203166002900490600052602060002090601f016020900481019282601f1061363a57805160ff1916838001178555613668565b82800160010185558215613668579182015b8281111561366757825182559160200191906001019061364c565b5b5090506136759190613750565b5090565b8280548282559060005260206000209081019282156136f2579160200282015b828111156136f15782518260006101000a81548173ffffffffffffffffffffffffffffffffffffffff021916908373ffffffffffffffffffffffffffffffffffffffff16021790555091602001919060010190613699565b5b5090506136ff9190613775565b5090565b82805482825590600052602060002090810192821561373f579160200282015b8281111561373e578251825591602001919060010190613723565b5b50905061374c9190613750565b5090565b61377291905b8082111561376e576000816000905550600101613756565b5090565b90565b6137b591905b808211156137b157600081816101000a81549073ffffffffffffffffffffffffffffffffffffffff02191690555060010161377b565b5090565b9056fea265627a7a723158209cfb53af771b87ab0d3f98ffe83041acac7d47306e701b67195402ce446b378f64736f6c63430005100032",
  "source": "pragma solidity ^0.5.0;\r\n\r\ncontract Univ {\r\n    \r\n    address public ownerAddress = 0x049bB561227Ace1c8dFED55C4E9386cCb6D63702;\r\n    \r\n    struct StudentDetails {\r\n        uint id;\r\n        string name;\r\n        address studentAddress;\r\n    }\r\n    \r\n    struct StudentDegreeDetails {\r\n        uint id;\r\n        string degree_name;\r\n        string year;\r\n        string ipfsHASH;\r\n        string orig_ipfsHASH;\r\n        address studentAddress;\r\n        uint shareID;\r\n    }\r\n    \r\n    struct StudentDegreeDetails_Address {\r\n        uint id;\r\n        string degree_name;\r\n        string year;\r\n        string ipfsHASH;\r\n        string orig_ipfsHASH;\r\n        address studentAddress;\r\n        uint shareID;\r\n    }\r\n    \r\n    struct DegreeList {\r\n        address studentAddress;\r\n        uint degreeIDlength;\r\n        uint[] degreeID;\r\n    }\r\n    \r\n    struct ShareList {\r\n        uint id;\r\n        address studentAddress;\r\n        string ipfsHASH;\r\n        uint shareIDLength;\r\n        string orig_ipfsHASH;\r\n        address[] shareIDs;\r\n    }\r\n    \r\n    address[] tempstring;\r\n    uint[] temp = [1];\r\n    string ok;\r\n    \r\n    mapping(address => bool) public degreeCompleted;\r\n    mapping(address => bool) public registeredStudent;\r\n    mapping(uint => StudentDegreeDetails) public studentdegreedetails;\r\n    mapping(address => StudentDegreeDetails_Address) public std_add;\r\n    mapping(address => StudentDetails) public studentdetail_address;\r\n    mapping(address => DegreeList) public degreelist;\r\n    mapping(uint => ShareList) public sharelist;\r\n\r\n    uint public degreeCounts;\r\n    uint public studentCounts;\r\n    uint public shareCounts;\r\n    bool public lastupload = false;\r\n    bool public lastshare = false;\r\n    bool public lastview = true;\r\n    \r\n    function getdegreeIDarr(address _addressid,uint _studentCount) private{\r\n        degreelist[_addressid].degreeIDlength+=1;\r\n        degreelist[_addressid].degreeID.push(_studentCount);\r\n    }\r\n    \r\n    function share(address _useraddress,string memory _ipfsHASH, address _shareaddress) public{\r\n        if(matchipfs(0, _ipfsHASH, _useraddress)!=0){\r\n            shareCounts++;\r\n            sharelist[matchipfs(0, _ipfsHASH, _useraddress)].shareIDLength+=1;\r\n            sharelist[matchipfs(0, _ipfsHASH, _useraddress)].shareIDs.push(_shareaddress);\r\n            lastshare = true;\r\n        }else lastshare = false;\r\n    }\r\n    \r\n    function viewDocCheck(uint count, address _visitoraddress, string memory _ipfsHASH, address _studentaddress) public view returns (bool){\r\n        if(matchipfs(0, _ipfsHASH, _studentaddress)!=0){\r\n            if(count==sharelist[studentdegreedetails[matchipfs(0, _ipfsHASH, _studentaddress)].shareID].shareIDLength){\r\n                return false;\r\n            }else{\r\n                if(sharelist[studentdegreedetails[matchipfs(0, _ipfsHASH, _studentaddress)].shareID].shareIDs[sharelist[studentdegreedetails[matchipfs(0, _ipfsHASH, _studentaddress)].shareID].shareIDLength] == _visitoraddress){\r\n                    return true;\r\n                }else{\r\n                    return viewDocCheck(count, _visitoraddress, _ipfsHASH, _studentaddress);\r\n                }\r\n            }\r\n        }else return false;\r\n    }\r\n    \r\n    function viewDoc(uint count, address _visitoraddress, string memory _ipfsHASH, address _studentaddress) public view returns (string memory){\r\n        if(viewDocCheck(count, _visitoraddress, _ipfsHASH, _studentaddress)){\r\n            return sharelist[studentdegreedetails[matchipfs(0, _ipfsHASH, _studentaddress)].shareID].orig_ipfsHASH;\r\n        }else{\r\n            return \"\";\r\n        }\r\n    }\r\n    \r\n    function matchipfs(uint count,string memory _ipfsHash, address _addressid) public view returns (uint degreeID){\r\n        if(degreelist[_addressid].degreeIDlength>0) {\r\n            if(count==degreelist[_addressid].degreeIDlength){\r\n                count=0;\r\n                return 0;\r\n            }\r\n            count++;\r\n            if(keccak256(bytes(studentdegreedetails[count].ipfsHASH)) == keccak256(bytes(_ipfsHash))){\r\n                return count;\r\n            } else {\r\n                return matchipfs(count,_ipfsHash,_addressid);\r\n            }\r\n        }\r\n    }\r\n    \r\n    function getarr(address _addressid) public view returns (uint ret){\r\n        uint _degreeID = uint(degreelist[_addressid].degreeIDlength)-1;\r\n        return degreelist[_addressid].degreeID[_degreeID];\r\n    }\r\n    \r\n    function getname(address _addressid) public view returns (string memory)  {\r\n        return studentdetail_address[_addressid].name;\r\n    }\r\n    \r\n    function checkipfs(uint count,string memory _ipfsHash, address _addressid) public view returns (bool){\r\n        if(degreelist[_addressid].degreeIDlength>0) {\r\n            if(count==degreelist[_addressid].degreeIDlength){\r\n                count=0;\r\n                return false;\r\n            }\r\n            count++;\r\n            if(keccak256(bytes(studentdegreedetails[count].ipfsHASH)) == keccak256(bytes(_ipfsHash))){\r\n                return checkipfs(count,_ipfsHash,_addressid);\r\n            } else {\r\n                return true;\r\n            }\r\n        }\r\n    }\r\n\r\n    function admission(string memory _name, address _addressid) public {\r\n        if(!registeredStudent[_addressid] && ownerAddress==msg.sender){\r\n            studentCounts++;\r\n            studentdetail_address[_addressid] = StudentDetails(degreeCounts,_name,_addressid);\r\n            registeredStudent[_addressid]=true;\r\n        }\r\n    }\r\n    \r\n    function upload (string memory _degree_name, string memory _year, string memory _ipfsHash, address _addressid, string memory _orig_ipfsHASH) public{\r\n        if(registeredStudent[_addressid] && ownerAddress==msg.sender ){\r\n            if(!degreeCompleted[_addressid]){\r\n                degreeCounts ++;\r\n                getdegreeIDarr(_addressid,degreeCounts);\r\n                \r\n                shareCounts++;\r\n                tempstring.push(_addressid);\r\n                sharelist[shareCounts] = ShareList(shareCounts, _addressid, _ipfsHash, 0, _orig_ipfsHASH, tempstring);\r\n                \r\n                studentdegreedetails[degreeCounts] = StudentDegreeDetails(degreeCounts, _degree_name, _year, _ipfsHash, _orig_ipfsHASH, _addressid, shareCounts);\r\n                std_add[_addressid] = StudentDegreeDetails_Address(degreeCounts, _degree_name, _year, _ipfsHash, _orig_ipfsHASH, _addressid, shareCounts);\r\n                degreelist[_addressid] = DegreeList(_addressid, 1,temp);\r\n                degreeCompleted[_addressid]=true;\r\n                lastupload=true;\r\n            }\r\n            else{\r\n                if(checkipfs(0, _ipfsHash,_addressid)){\r\n                    degreeCounts ++;\r\n                    getdegreeIDarr(_addressid,degreeCounts);\r\n                    \r\n                    shareCounts++;\r\n                    tempstring.push(_addressid);\r\n                    sharelist[shareCounts] = ShareList(shareCounts, _addressid, _ipfsHash, 0, _orig_ipfsHASH, tempstring);\r\n                    \r\n                    studentdegreedetails[degreeCounts] = StudentDegreeDetails(degreeCounts, _degree_name, _year, _ipfsHash, _orig_ipfsHASH, _addressid, shareCounts);\r\n                    std_add[_addressid] = StudentDegreeDetails_Address(degreeCounts, _degree_name, _year, _ipfsHash,_orig_ipfsHASH, _addressid, shareCounts);\r\n                    degreelist[_addressid] = DegreeList(_addressid, degreelist[_addressid].degreeIDlength,degreelist[_addressid].degreeID);\r\n                    lastupload=true;\r\n                } else lastupload=false;\r\n            }\r\n        }\r\n    }\r\n}",
  "sourcePath": "C:/Users/MiMs/Desktop/Atria Solve for India Hackathon 28-29 Nov 2020/Code/IFPS/src/contracts/Univ.sol",
  "compiler": {
    "name": "solc",
    "version": "0.5.16+commit.9c3226ce.Emscripten.clang"
  },
  "schemaVersion": "3.2.5",
  "updatedAt": "2020-11-29T10:38:51.963Z",
  "networkType": "ethereum",
  "devdoc": {
    "methods": {}
  },
  "userdoc": {
    "methods": {}
  }
}